{
  "contractName": "Training",
  "abi": [
    {
      "constant": true,
      "inputs": [
        {
          "name": "",
          "type": "uint256"
        }
      ],
      "name": "requests",
      "outputs": [
        {
          "name": "demotype",
          "type": "string"
        },
        {
          "name": "duration",
          "type": "uint256"
        },
        {
          "name": "number",
          "type": "uint256"
        },
        {
          "name": "rate",
          "type": "uint256"
        },
        {
          "name": "init",
          "type": "bool"
        },
        {
          "name": "demofile",
          "type": "string"
        },
        {
          "name": "reward_gained",
          "type": "uint256"
        }
      ],
      "payable": false,
      "stateMutability": "view",
      "type": "function"
    },
    {
      "constant": true,
      "inputs": [],
      "name": "trainer",
      "outputs": [
        {
          "name": "",
          "type": "address"
        }
      ],
      "payable": false,
      "stateMutability": "view",
      "type": "function"
    },
    {
      "constant": true,
      "inputs": [],
      "name": "traineeAddr",
      "outputs": [
        {
          "name": "",
          "type": "address"
        }
      ],
      "payable": false,
      "stateMutability": "view",
      "type": "function"
    },
    {
      "inputs": [
        {
          "name": "_Ntua",
          "type": "address"
        },
        {
          "name": "_traineeAddr",
          "type": "address"
        }
      ],
      "payable": true,
      "stateMutability": "payable",
      "type": "constructor"
    },
    {
      "anonymous": false,
      "inputs": [
        {
          "indexed": false,
          "name": "trainee",
          "type": "address"
        },
        {
          "indexed": false,
          "name": "demotype",
          "type": "string"
        },
        {
          "indexed": false,
          "name": "duration",
          "type": "uint256"
        },
        {
          "indexed": false,
          "name": "requestno",
          "type": "uint256"
        }
      ],
      "name": "RequestSent",
      "type": "event"
    },
    {
      "anonymous": false,
      "inputs": [
        {
          "indexed": false,
          "name": "trainee",
          "type": "address"
        },
        {
          "indexed": false,
          "name": "requestno",
          "type": "uint256"
        },
        {
          "indexed": false,
          "name": "rate",
          "type": "uint256"
        }
      ],
      "name": "RateSent",
      "type": "event"
    },
    {
      "anonymous": false,
      "inputs": [
        {
          "indexed": false,
          "name": "trainee",
          "type": "address"
        },
        {
          "indexed": false,
          "name": "requestno",
          "type": "uint256"
        },
        {
          "indexed": false,
          "name": "demofile",
          "type": "string"
        }
      ],
      "name": "DemoSent",
      "type": "event"
    },
    {
      "anonymous": false,
      "inputs": [
        {
          "indexed": false,
          "name": "trainee",
          "type": "address"
        },
        {
          "indexed": false,
          "name": "requestno",
          "type": "uint256"
        },
        {
          "indexed": false,
          "name": "reward_gained",
          "type": "uint256"
        }
      ],
      "name": "TrainingCompleted",
      "type": "event"
    },
    {
      "anonymous": false,
      "inputs": [
        {
          "indexed": false,
          "name": "trainee",
          "type": "address"
        },
        {
          "indexed": false,
          "name": "trainer",
          "type": "address"
        },
        {
          "indexed": false,
          "name": "requestno",
          "type": "uint256"
        },
        {
          "indexed": false,
          "name": "amount",
          "type": "uint256"
        }
      ],
      "name": "PaymentCompleted",
      "type": "event"
    },
    {
      "constant": true,
      "inputs": [
        {
          "name": "number",
          "type": "uint256"
        }
      ],
      "name": "queryRequest",
      "outputs": [
        {
          "name": "duration",
          "type": "uint256"
        },
        {
          "name": "rate",
          "type": "uint256"
        },
        {
          "name": "demofile",
          "type": "string"
        },
        {
          "name": "reward_gained",
          "type": "uint256"
        }
      ],
      "payable": false,
      "stateMutability": "view",
      "type": "function"
    },
    {
      "constant": false,
      "inputs": [
        {
          "name": "demotype",
          "type": "string"
        },
        {
          "name": "duration",
          "type": "uint256"
        }
      ],
      "name": "requestDemo",
      "outputs": [],
      "payable": true,
      "stateMutability": "payable",
      "type": "function"
    },
    {
      "constant": false,
      "inputs": [
        {
          "name": "requestno",
          "type": "uint256"
        },
        {
          "name": "rate",
          "type": "uint256"
        }
      ],
      "name": "sendRate",
      "outputs": [],
      "payable": true,
      "stateMutability": "payable",
      "type": "function"
    },
    {
      "constant": false,
      "inputs": [
        {
          "name": "requestno",
          "type": "uint256"
        },
        {
          "name": "demofile",
          "type": "string"
        }
      ],
      "name": "sendDemo",
      "outputs": [],
      "payable": true,
      "stateMutability": "payable",
      "type": "function"
    },
    {
      "constant": false,
      "inputs": [
        {
          "name": "requestno",
          "type": "uint256"
        },
        {
          "name": "reward_gained",
          "type": "uint256"
        }
      ],
      "name": "trainingCompleted",
      "outputs": [],
      "payable": true,
      "stateMutability": "payable",
      "type": "function"
    },
    {
      "constant": false,
      "inputs": [
        {
          "name": "requestno",
          "type": "uint256"
        },
        {
          "name": "reward_gained",
          "type": "uint256"
        }
      ],
      "name": "safePay",
      "outputs": [],
      "payable": true,
      "stateMutability": "payable",
      "type": "function"
    },
    {
      "constant": false,
      "inputs": [
        {
          "name": "_sender",
          "type": "address"
        },
        {
          "name": "_value",
          "type": "uint256"
        },
        {
          "name": "_tokenContract",
          "type": "address"
        },
        {
          "name": "_extraData",
          "type": "bytes"
        }
      ],
      "name": "receiveApproval",
      "outputs": [],
      "payable": false,
      "stateMutability": "nonpayable",
      "type": "function"
    }
  ],
  "bytecode": "0x60806040526040516040806116f3833981018060405281019080805190602001909291908051906020019092919050505033600160006101000a81548173ffffffffffffffffffffffffffffffffffffffff021916908373ffffffffffffffffffffffffffffffffffffffff16021790555080600260006101000a81548173ffffffffffffffffffffffffffffffffffffffff021916908373ffffffffffffffffffffffffffffffffffffffff160217905550816000806101000a81548173ffffffffffffffffffffffffffffffffffffffff021916908373ffffffffffffffffffffffffffffffffffffffff16021790555050506115f0806101036000396000f3006080604052600436106100a4576000357c0100000000000000000000000000000000000000000000000000000000900463ffffffff1680635b946ad8146100a957806369415f651461010f57806381d12c58146101395780638f4ffcb114610272578063934a68a214610325578063a037bcfa146103e0578063ab55ea7d1461040a578063bab861c114610470578063c975b6dd146104c7578063d217a937146104f1575b600080fd5b61010d600480360381019080803590602001908201803590602001908080601f016020809104026020016040519081016040528093929190818152602001838380828437820191505050505050919291929080359060200190929190505050610548565b005b6101376004803603810190808035906020019092919080359060200190929190505050610781565b005b34801561014557600080fd5b5061016460048036038101908080359060200190929190505050610a7f565b6040518080602001888152602001878152602001868152602001851515151581526020018060200184815260200183810383528a818151815260200191508051906020019080838360005b838110156101ca5780820151818401526020810190506101af565b50505050905090810190601f1680156101f75780820380516001836020036101000a031916815260200191505b50838103825285818151815260200191508051906020019080838360005b83811015610230578082015181840152602081019050610215565b50505050905090810190601f16801561025d5780820380516001836020036101000a031916815260200191505b50995050505050505050505060405180910390f35b34801561027e57600080fd5b50610323600480360381019080803573ffffffffffffffffffffffffffffffffffffffff16906020019092919080359060200190929190803573ffffffffffffffffffffffffffffffffffffffff169060200190929190803590602001908201803590602001908080601f0160208091040260200160405190810160405280939291908181526020018383808284378201915050505050509192919290505050610bfe565b005b34801561033157600080fd5b5061035060048036038101908080359060200190929190505050610ee1565b6040518085815260200184815260200180602001838152602001828103825284818151815260200191508051906020019080838360005b838110156103a2578082015181840152602081019050610387565b50505050905090810190601f1680156103cf5780820380516001836020036101000a031916815260200191505b509550505050505060405180910390f35b610408600480360381019080803590602001909291908035906020019092919050505061101d565b005b61046e60048036038101908080359060200190929190803590602001908201803590602001908080601f016020809104026020016040519081016040528093929190818152602001838380828437820191505050505050919291929050505061115c565b005b34801561047c57600080fd5b50610485611310565b604051808273ffffffffffffffffffffffffffffffffffffffff1673ffffffffffffffffffffffffffffffffffffffff16815260200191505060405180910390f35b6104ef6004803603810190808035906020019092919080359060200190929190505050611336565b005b3480156104fd57600080fd5b50610506611479565b604051808273ffffffffffffffffffffffffffffffffffffffff1673ffffffffffffffffffffffffffffffffffffffff16815260200191505060405180910390f35b600260009054906101000a900473ffffffffffffffffffffffffffffffffffffffff1673ffffffffffffffffffffffffffffffffffffffff163373ffffffffffffffffffffffffffffffffffffffff161415156105a457600080fd5b60046000815480929190600101919050555060e060405190810160405280838152602001828152602001600454815260200160008152602001600115158152602001602060405190810160405280600081525081526020016000815250600360006004548152602001908152602001600020600082015181600001908051906020019061063292919061149f565b5060208201518160010155604082015181600201556060820151816003015560808201518160040160006101000a81548160ff02191690831515021790555060a082015181600501908051906020019061068d92919061149f565b5060c082015181600601559050507f5609eab0ffdabd1a8337ce1ed6c5f83a0dd35b511810b180bbc64f18c2377929338383600454604051808573ffffffffffffffffffffffffffffffffffffffff1673ffffffffffffffffffffffffffffffffffffffff16815260200180602001848152602001838152602001828103825285818151815260200191508051906020019080838360005b83811015610740578082015181840152602081019050610725565b50505050905090810190601f16801561076d5780820380516001836020036101000a031916815260200191505b509550505050505060405180910390a15050565b6000600260009054906101000a900473ffffffffffffffffffffffffffffffffffffffff1673ffffffffffffffffffffffffffffffffffffffff163373ffffffffffffffffffffffffffffffffffffffff161415156107df57600080fd5b6003600084815260200190815260200160002060040160009054906101000a900460ff16151561080e57600080fd5b612710600360008581526020019081526020016000206003015483020290506000809054906101000a900473ffffffffffffffffffffffffffffffffffffffff1673ffffffffffffffffffffffffffffffffffffffff166323b872dd33600160009054906101000a900473ffffffffffffffffffffffffffffffffffffffff16846040518463ffffffff167c0100000000000000000000000000000000000000000000000000000000028152600401808473ffffffffffffffffffffffffffffffffffffffff1673ffffffffffffffffffffffffffffffffffffffff1681526020018373ffffffffffffffffffffffffffffffffffffffff1673ffffffffffffffffffffffffffffffffffffffff1681526020018281526020019350505050602060405180830381600087803b15801561094757600080fd5b505af115801561095b573d6000803e3d6000fd5b505050506040513d602081101561097157600080fd5b8101908080519060200190929190505050151561098d57600080fd5b7fbfba8807ba3faa0360b2723bf32bd1458033315d54b57d95c4d1056ccceaedfa600260009054906101000a900473ffffffffffffffffffffffffffffffffffffffff16600160009054906101000a900473ffffffffffffffffffffffffffffffffffffffff1660045484604051808573ffffffffffffffffffffffffffffffffffffffff1673ffffffffffffffffffffffffffffffffffffffff1681526020018473ffffffffffffffffffffffffffffffffffffffff1673ffffffffffffffffffffffffffffffffffffffff16815260200183815260200182815260200194505050505060405180910390a1505050565b6003602052806000526040600020600091509050806000018054600181600116156101000203166002900480601f016020809104026020016040519081016040528092919081815260200182805460018160011615610100020316600290048015610b2b5780601f10610b0057610100808354040283529160200191610b2b565b820191906000526020600020905b815481529060010190602001808311610b0e57829003601f168201915b5050505050908060010154908060020154908060030154908060040160009054906101000a900460ff1690806005018054600181600116156101000203166002900480601f016020809104026020016040519081016040528092919081815260200182805460018160011615610100020316600290048015610bee5780601f10610bc357610100808354040283529160200191610bee565b820191906000526020600020905b815481529060010190602001808311610bd157829003601f168201915b5050505050908060060154905087565b60008060008473ffffffffffffffffffffffffffffffffffffffff166000809054906101000a900473ffffffffffffffffffffffffffffffffffffffff1673ffffffffffffffffffffffffffffffffffffffff16141515610c5e57600080fd5b835192506020840151915082602003600802829060020a900491508160036000600454815260200190815260200160002060060154141515610c9f57600080fd5b6127108260036000600454815260200190815260200160002060030154020290508086141515610cce57600080fd5b8473ffffffffffffffffffffffffffffffffffffffff166323b872dd8830896040518463ffffffff167c0100000000000000000000000000000000000000000000000000000000028152600401808473ffffffffffffffffffffffffffffffffffffffff1673ffffffffffffffffffffffffffffffffffffffff1681526020018373ffffffffffffffffffffffffffffffffffffffff1673ffffffffffffffffffffffffffffffffffffffff1681526020018281526020019350505050602060405180830381600087803b158015610da557600080fd5b505af1158015610db9573d6000803e3d6000fd5b505050506040513d6020811015610dcf57600080fd5b81019080805190602001909291905050501515610deb57600080fd5b7fbfba8807ba3faa0360b2723bf32bd1458033315d54b57d95c4d1056ccceaedfa600260009054906101000a900473ffffffffffffffffffffffffffffffffffffffff16600160009054906101000a900473ffffffffffffffffffffffffffffffffffffffff1660045489604051808573ffffffffffffffffffffffffffffffffffffffff1673ffffffffffffffffffffffffffffffffffffffff1681526020018473ffffffffffffffffffffffffffffffffffffffff1673ffffffffffffffffffffffffffffffffffffffff16815260200183815260200182815260200194505050505060405180910390a150505050505050565b600080606060006003600086815260200190815260200160002060040160009054906101000a900460ff161515610f1757600080fd5b60036000868152602001908152602001600020600101546003600087815260200190815260200160002060030154600360008881526020019081526020016000206005016003600089815260200190815260200160002060060154818054600181600116156101000203166002900480601f0160208091040260200160405190810160405280929190818152602001828054600181600116156101000203166002900480156110075780601f10610fdc57610100808354040283529160200191611007565b820191906000526020600020905b815481529060010190602001808311610fea57829003601f168201915b5050505050915093509350935093509193509193565b600160009054906101000a900473ffffffffffffffffffffffffffffffffffffffff1673ffffffffffffffffffffffffffffffffffffffff163373ffffffffffffffffffffffffffffffffffffffff1614151561107957600080fd5b6003600083815260200190815260200160002060040160009054906101000a900460ff1615156110a857600080fd5b8060036000848152602001908152602001600020600301819055507f2c66bea1cbbc24f0c62aa4fd7f830d84a2d211618b38a4ab1b1e8d9f8eadbba8600260009054906101000a900473ffffffffffffffffffffffffffffffffffffffff168383604051808473ffffffffffffffffffffffffffffffffffffffff1673ffffffffffffffffffffffffffffffffffffffff168152602001838152602001828152602001935050505060405180910390a15050565b600160009054906101000a900473ffffffffffffffffffffffffffffffffffffffff1673ffffffffffffffffffffffffffffffffffffffff163373ffffffffffffffffffffffffffffffffffffffff161415156111b857600080fd5b6003600083815260200190815260200160002060040160009054906101000a900460ff1615156111e757600080fd5b8060036000848152602001908152602001600020600501908051906020019061121192919061151f565b507f5dcbdc83292e89e700c729034eaf6fd8e1ef4f2a94840575d8abf71a4e5fe7c5600260009054906101000a900473ffffffffffffffffffffffffffffffffffffffff168383604051808473ffffffffffffffffffffffffffffffffffffffff1673ffffffffffffffffffffffffffffffffffffffff16815260200183815260200180602001828103825283818151815260200191508051906020019080838360005b838110156112d05780820151818401526020810190506112b5565b50505050905090810190601f1680156112fd5780820380516001836020036101000a031916815260200191505b5094505050505060405180910390a15050565b600160009054906101000a900473ffffffffffffffffffffffffffffffffffffffff1681565b600260009054906101000a900473ffffffffffffffffffffffffffffffffffffffff1673ffffffffffffffffffffffffffffffffffffffff163373ffffffffffffffffffffffffffffffffffffffff1614151561139257600080fd5b6003600083815260200190815260200160002060040160009054906101000a900460ff1615156113c157600080fd5b80600360006004548152602001908152602001600020600601819055507fce71cea9b2d970c91d15d3ab354a20e3c67ab1332375603874b4022b295f7f1f600260009054906101000a900473ffffffffffffffffffffffffffffffffffffffff1660045483604051808473ffffffffffffffffffffffffffffffffffffffff1673ffffffffffffffffffffffffffffffffffffffff168152602001838152602001828152602001935050505060405180910390a15050565b600260009054906101000a900473ffffffffffffffffffffffffffffffffffffffff1681565b828054600181600116156101000203166002900490600052602060002090601f016020900481019282601f106114e057805160ff191683800117855561150e565b8280016001018555821561150e579182015b8281111561150d5782518255916020019190600101906114f2565b5b50905061151b919061159f565b5090565b828054600181600116156101000203166002900490600052602060002090601f016020900481019282601f1061156057805160ff191683800117855561158e565b8280016001018555821561158e579182015b8281111561158d578251825591602001919060010190611572565b5b50905061159b919061159f565b5090565b6115c191905b808211156115bd5760008160009055506001016115a5565b5090565b905600a165627a7a72305820b329e8e7e948b94faeb3acf307dd366f95d53bcb3d535f1077f16e768866f36d0029",
  "source": "pragma solidity ^0.4.24;\r\nimport \"./TokenERC20.sol\";\r\n\r\n\r\ncontract Training {\r\n    TokenERC20 private Ntua;\r\n\r\n    // The trainer's address\r\n    address public trainer;\r\n    // The trainee's address\r\n    address public traineeAddr;\r\n\r\n    // The Request struct\r\n    struct Request {\r\n        string demotype;\r\n        uint duration;\r\n        uint number;\r\n        uint rate;\r\n        bool init;\r\n        string demofile;\r\n        uint reward_gained;\r\n    }\r\n\r\n    // The mapping to store the requests for demo\r\n    mapping (uint => Request) public requests;\r\n\r\n    // The sequence number of the requests for demo\r\n    uint requestseq;\r\n\r\n\r\n    // Event triggered when a new request for demo received\r\n\r\n    event RequestSent(address trainee, string demotype, uint duration, uint requestno);\r\n\r\n    // Event triggered when the trainer has evaluate the rate of the reward\r\n    // for the requested demo\r\n    event RateSent(address trainee, uint requestno, uint rate);\r\n\r\n    // Event triggered when the trainer has prepared requested demo\r\n    // demofile: contains the hash code provided by IPFS\r\n    event DemoSent(address trainee, uint requestno, string demofile);\r\n\r\n    // Event triggered when the trainee has completed the training\r\n    event TrainingCompleted(address trainee, uint requestno, uint reward_gained);\r\n\r\n    // Event triggered when the payment took place\r\n    event PaymentCompleted(address trainee, address trainer, uint requestno, uint amount);\r\n\r\n    // Constructor\r\n    constructor(TokenERC20 _Ntua, address _traineeAddr) public payable {\r\n        trainer = msg.sender;       // Trainer is the contract owner\r\n        traineeAddr = _traineeAddr;\r\n        Ntua = _Ntua;\r\n    }\r\n\r\n   // The function to query requests by its sequence number\r\n    function queryRequest(uint number) constant public returns (uint duration, uint rate, string demofile, uint reward_gained ) {\r\n        // Validate the request number\r\n        require(requests[number].init);\r\n        // Return the order data\r\n        return(requests[number].duration,requests[number].rate, requests[number].demofile, requests[number].reward_gained);\r\n    }\r\n\r\n\r\n    // The function to request for Demo\r\n    function requestDemo(string demotype, uint duration) public payable {\r\n        // Accept requests only from trainee\r\n        require(msg.sender == traineeAddr);\r\n        // Increment the sequence number of requests\r\n        requestseq++;\r\n        // Update the requests list\r\n        requests[requestseq] = Request(demotype, duration, requestseq, 0, true, \"\", 0);\r\n        /// Trigger the event\r\n        emit RequestSent(msg.sender, demotype, duration, requestseq);\r\n\r\n    }\r\n\r\n    // The function to send the rate to pay for the demo\r\n    function sendRate(uint requestno, uint rate) public payable {\r\n        // Only the trainer can use this function\r\n        require(msg.sender == trainer);\r\n        /// Validate the request number\r\n        require(requests[requestno].init);\r\n        requests[requestno].rate = rate;\r\n        /// Trigger the event\r\n        emit RateSent(traineeAddr, requestno, rate);\r\n    }\r\n\r\n    // The function to send the rate to pay for the demo\r\n    function sendDemo(uint requestno, string demofile) public payable {\r\n        // Only the trainer can use this function\r\n        require(msg.sender == trainer);\r\n        /// Validate the request number\r\n        require(requests[requestno].init);\r\n        requests[requestno].demofile = demofile;\r\n        /// Trigger the event\r\n        emit DemoSent(traineeAddr, requestno, demofile);\r\n    }\r\n\r\n    // The function to inform that the training has completed\r\n    function trainingCompleted(uint requestno, uint reward_gained) public payable {\r\n        // Accept requests only from trainee\r\n        require(msg.sender == traineeAddr);\r\n                /// Validate the request number\r\n        require(requests[requestno].init);\r\n        // Update the requests list\r\n        requests[requestseq].reward_gained = reward_gained;\r\n\r\n        // Trigger the event\r\n        emit TrainingCompleted(traineeAddr, requestseq, reward_gained);\r\n    }\r\n\r\n\r\n    // The function to inform that the training has completed\r\n    function safePay(uint requestno, uint reward_gained) public payable {\r\n        // Accept requests only from trainee\r\n        require(msg.sender == traineeAddr);\r\n                /// Validate the request number\r\n        require(requests[requestno].init);\r\n        // Update the requests list\r\n        \r\n        uint amount = reward_gained * requests[requestno].rate * 10 ** 4;\r\n\r\n        // Training contract should ask from ERC20 Token to perform the transaction\r\n        //Ntua.transferFrom(msg.sender, trainer, amount);\r\n        //require(Ntua.transferFrom(msg.sender, address(this), amount));\r\n        require(Ntua.transferFrom(msg.sender, trainer, amount));\r\n\r\n        // Trigger the event\r\n        emit PaymentCompleted(traineeAddr, trainer, requestseq, amount);\r\n    }\r\n\r\n\r\n    // _value: holds the amount approved by trainee\r\n    // _extraData: holds the reward_gained by trainee\r\n    function receiveApproval(address _sender,\r\n                         uint256 _value,\r\n                         TokenERC20 _tokenContract,\r\n                         bytes _extraData) public {\r\n        require(Ntua == _tokenContract);\r\n        // the _extraData is passed as bytes\r\n        // decode the value according\r\n        uint256 payloadSize;\r\n        uint256 reward_gained;\r\n        uint256 amount;\r\n        assembly {\r\n            payloadSize := mload(_extraData)\r\n            reward_gained := mload(add(_extraData, 0x20))\r\n        }\r\n        reward_gained = reward_gained >> 8*(32 - payloadSize);\r\n        //requests[requestseq].reward_gained = reward_gained;\r\n        require(requests[requestseq].reward_gained == reward_gained);\r\n\r\n        amount = requests[requestseq].rate * reward_gained * 10 ** 4;\r\n        require(_value == amount);\r\n\r\n        require(_tokenContract.transferFrom(_sender, address(this), _value));\r\n        // Trigger the event\r\n        emit PaymentCompleted(traineeAddr, trainer, requestseq, _value);\r\n\r\n    }\r\n}",
  "sourcePath": "C:\\Users\\costa\\Documents\\AMaria\\TEO\\Thesis\\Ethereum-Ganache\\training-project\\contracts\\Training.sol",
  "compiler": {
    "name": "solc",
    "version": "0.4.24+commit.e67f0147.Emscripten.clang"
  },
  "schemaVersion": "3.2.0",
  "updatedAt": "2020-05-31T18:38:31.167Z",
  "networkType": "ethereum",
  "devdoc": {
    "methods": {}
  },
  "userdoc": {
    "methods": {}
  }
}